:1000000072C00000A1C000009FC000009DC00000A1
:100010009BC0000099C0000097C0000095C0000080
:1000200093C0000091C000008FC000008DC0000090
:100030008BC0000089C0000087C0000085C00000A0
:1000400083C0000081C000007FC000007DC00000B0
:100050007BC0000079C0000077C000000C942F0C1A
:1000600073C000000C94F90B0C94CF0B6DC0000012
:100070006BC0000069C0000067C0000065C00000E0
:1000800063C0000061C000005FC000005DC00000F0
:100090005BC0000059C0000057C0000055C0000000
:1000A00053C0000051C000004FC000004DC0000010
:1000B0004BC0000049C0000047C0000045C0000020
:1000C00043C0000041C000003FC000003DC0000030
:1000D0003BC0000039C0000037C0000035C0000040
:1000E00033C00000790C11241FBECFEFD1E2DEBF78
:1000F000CDBF00E00CBF13E0A0E0B2E0E4E2F2E22A
:1001000000E00BBF02C007900D92A63BB107D9F7E4
:1001100029E0A6EBB3E001C01D92AC31B207E1F7D4
:1001200010E0C3E7D0E000E006C021970109802F6E
:10013000FE010E94DB0EC237D10780E00807A9F755
:100140000E943A0D0C9410115BCFCF92DF92EF9288
:10015000FF920F931F93CF93DF936C017A018B0172
:10016000C0E0D0E0CE15DF0589F0D8016D918D019A
:10017000D601ED91FC910190F081E02DC601199519
:10018000892B11F47E0102C02196ECCFC701DF91CB
:10019000CF911F910F91FF90EF90DF90CF90089536
:1001A000FC01918D828D981761F0828DDF01A80F7F
:1001B000B11D5D968C91928D9F5F9F73928F90E0A1
:1001C00008958FEF9FEF0895FC01918D828D981710
:1001D00031F0828DE80FF11D858D90E008958FEF4D
:1001E0009FEF0895FC01918D228D892F90E0805C16
:1001F0009F4F821B91098F73992708958FEB93E08E
:10020000F1DF21E0892B09F420E0822F0895FC0121
:10021000848DDF01A80FB11DA35ABF4F2C91848D8F
:1002200090E001968F739927848FA689B7892C93C4
:10023000A089B1898C9180648C93938D848D98135F
:1002400006C00288F389E02D80818F7D8083089528
:10025000EF92FF920F931F93CF93DF93EC0181E016
:10026000888F9B8D8C8D981305C0E889F9898081D2
:1002700085FD23C0F62E0B8D10E00F5F1F4F0F730F
:100280001127E02E8C8DE8120BC00FB607FCFACFB9
:10029000E889F989808185FFF5CFCE01B8DFF2CFFB
:1002A0008B8DFE01E80FF11DE35AFF4FF0820B8F9B
:1002B000EA89FB898081806207C0EE89FF896083BB
:1002C000E889F98980818064808381E090E0DF9112
:1002D000CF911F910F91FF90EF900895CF93DF93EF
:1002E000EC01888D8823C1F0EA89FB89808185FD36
:1002F00005C0A889B9898C9186FD0EC00FB607FC90
:10030000F5CF808185FFF2CFA889B9898C9185FFCF
:10031000EDCFCE017CDFE8CFDF91CF91089580E073
:1003200090E0892B19F06ADF811125C080E090E010
:10033000892B41F080E090E0892B21F00E940000A1
:1003400081111CC080E090E0892B41F080E090E0BA
:10035000892B21F00E940000811113C080E090E001
:10036000892BA1F080E090E0892B81F00E940000B1
:1003700081110AC008950E940000D8CF0E94000099
:10038000E1CF0E940000EACF0C94000008953FB72F
:10039000F8948091BB039091BC03A091BD03B091F0
:1003A000BE0326B5A89B05C02F3F19F00196A11DDD
:1003B000B11D3FBFBA2FA92F982F8827820F911DFB
:1003C000A11DB11DBC01CD0142E0660F771F881F42
:1003D000991F4A95D1F708952FB7F8946091B70304
:1003E0007091B8038091B9039091BA032FBF08951B
:1003F000FC01EE57FB4F808108958F929F92AF9240
:10040000BF92CF92DF92EF92FF920F931F93CF9301
:10041000DF9300D01F921F92CDB7DEB78C016B0126
:1004200064E6C616D1043CF0FC01EE57FB4F808118
:10043000882309F478C0DA01ED91FC910190F081F4
:10044000E02DB801655E7D4FCA0119959C017801C8
:10045000BCEEEB1ABDEFFB0A4FEFF70140834EEF06
:100460003196408331968083319690833196890FFF
:10047000809580833196C082D801A65EBD4FDC9204
:1004800065E070E040E050E0C90107966817790721
:1004900030F4A1914A0F511D6F5F7F4FF7CF690173
:1004A000F8E0CF0ED11C800F911FFC01EC5EFD4FD8
:1004B0004095408341E0C41642E0D406C1F05601A5
:1004C0004701D80112968D919C911397F401619187
:1004D0004F01DC01ED91FC910190F081E02D199527
:1004E000C4018E199F098C159D055CF31EC08BE419
:1004F00092E09A83898383E08B8385E892E09D83F1
:100500008C83D801ED91FC910190F081E02DAE013A
:100510004F5F5F4F67E070E0C8011995AA24AA9465
:10052000BB24BA9402C0A12CB12CC5010F900F902E
:100530000F900F900F90DF91CF911F910F91FF902F
:10054000EF90DF90CF90BF90AF909F908F900895E5
:100550000F931F93CF93DF93CDB7DEB72A970FB6D4
:10056000F894DEBF0FBECDBF8C018FE392E09A837B
:1005700089831B821C821D821E821F821886198617
:100580001A86D801ED91FC910190F081E02DAE0129
:100590004F5F5F4F6AE070E0C80119951DDFF801F9
:1005A00060877187828793872A960FB6F894DEBF9B
:1005B0000FBECDBFDF91CF911F910F910895CF92C4
:1005C000DF92EF92FF92FC0110821182128213825D
:1005D000DB0120E030E04D9150E0022E02C0440FDC
:1005E000551F0A94E2F7052E000C660B770BC080AE
:1005F000D180E280F3804C295D296E297F294083D8
:10060000518362837383285F3F4F2032310519F78E
:10061000FF90EF90DF90CF900895CF92DF92EF920E
:10062000FF9220E030E06A017B01022E04C0F694C4
:10063000E794D794C7940A94D2F7FC01C192CF01F2
:10064000285F3F4F2032310571F7FF90EF90DF9028
:10065000CF9008958EEB92E008958FED92E008958B
:100660008F929F92AF92BF92CF92DF92EF92FF92C2
:100670000F931F93CF93DF9300D01F92CDB7DEB7B8
:100680007C018B01CE0101969ADF89819A81AB8131
:10069000BC814C015D0124E0820E911CA11CB11CA7
:1006A0006801E4E0CE0ED11CA601401B510B60E0B6
:1006B00070E0481559056A057B0548F4F60141913B
:1006C0006F019F0122503109F9014083EDCFF801FC
:1006D000E80FF91F13820D5F1F4FF7011383028389
:1006E00004960F900F900F900F90DF91CF911F9174
:1006F0000F91FF90EF90DF90CF90BF90AF909F90C1
:100700008F9008958FEE92E0089583E192E008952E
:1007100080E193E0089581E393E008958F929F92A2
:10072000AF92BF92CF92DF92EF92FF920F931F93FF
:10073000CF93DF9300D01F92CDB7DEB77C018B0142
:10074000FB018191BF01F7018283CE01019637DF62
:1007500089819A81AB81BC814C015D01F5E08F0EEE
:10076000911CA11CB11C680125E0C20ED11CA60180
:10077000401B510B60E070E0481559056A057B0588
:1007800048F4F60141916F019F0122503109F901AE
:100790004083EDCFF801E80FF91F14820C5F1F4F63
:1007A000F7011483038305960F900F900F900F901D
:1007B000DF91CF911F910F91FF90EF90DF90CF903D
:1007C000BF90AF909F908F90089584E493E0089538
:1007D00085E693E008954F925F926F927F928F9299
:1007E0009F92AF92BF92CF92DF92EF92FF920F93C0
:1007F0001F93CF93DF93CDB7DEB72C970FB6F89446
:10080000DEBF0FBECDBF7C018B01DB018C9190E080
:10081000F7019383828311962C91922B9383828389
:100820006E5F7F4FCE010996CADE89849A84AB84BD
:10083000BC84B501A4014A5F5F4F6F4F7F4FF80141
:100840003696CF01801B910BA0E0B0E0841795078E
:10085000A607B70728F48191DF0112978C93F1CF97
:10086000F801E80DF91D1582C8010596D701159606
:100870009C938E931497B4016A5F7F4F600F711F32
:10088000CE0105969CDEBAE08B0E911C4D815E81F7
:100890006F8178852401092C000C66087708440EC6
:1008A000551E661E771EF801E80DF91DCF01801B4D
:1008B000910BA0E0B0E084159505A605B70528F4D6
:1008C0008191DF0112978C93F1CF6401C40ED51E84
:1008D000B8016C0D7D1DFB0131971082C401019799
:1008E000800F911FF70197838683CE01019667DE03
:1008F000A6014C5F5F4F49805A806B807C804A0123
:10090000052E000CAA08BB08840C951CA61CB71C5D
:10091000F801E40FF51F9F01201B310BC901A0E076
:10092000B0E088159905AA05BB0528F48191DF017F
:1009300012978C93F0CFCA01840D951DF801E80F32
:10094000F91FDF0111971C929A0121503109020F02
:10095000131FD70119961C930E931897218142817A
:1009600050E060E070E0BA0155274427522B208107
:10097000422B2381722BF701428753876487758747
:1009800004962C960FB6F894DEBF0FBECDBFDF9154
:10099000CF911F910F91FF90EF90DF90CF90BF907C
:1009A000AF909F908F907F906F905F904F90089541
:1009B0008EE793E008958FE993E00895FC01DB0151
:1009C0004C9150E060E070E0428353836483758310
:1009D00011968C911197582B4283538364837583AE
:1009E00012968C911297682B42835383648375838C
:1009F00013968C911397782B42835383648375836A
:100A000014964C91149750E060E070E04683578351
:100A10006087718715968C911597582B468357835D
:100A20006087718716968C911697682B468357833B
:100A30006087718717968C91782B468357836087E0
:100A4000718788E090E00895DC01FB0112968C919B
:100A50001297808313968C911397818314968C91AF
:100A60001497828315968C911597838316968C9193
:100A70001697848317968C911797858318968C9177
:100A80001897868319968C91878388E090E0089563
:100A90000E94D60FEF92FF920F931F93CF93DF9395
:100AA0007C018B01DC011296ED91FC911397EF0113
:100AB00009900020E9F72197CE1BDF0BAE0160E023
:100AC00070E0C801AADDF70162817381AE01C8013F
:100AD00004960E94DA0FCE010496DF91CF911F9108
:100AE0000F91FF90EF9008954F925F926F927F92D7
:100AF000AF92BF92CF92DF92EF92FF920F931F932C
:100B0000CF93DF93EC017B018A81FB0180838B8192
:100B100081838C8182838D818383DB01179640E002
:100B200050E0BA01E4E0F0E04A805B806C807D80B8
:100B30008F010C5F1F4F4415550566057705C0F4FE
:100B40008A859B85E80FF91F3497D0802181928197
:100B50008381FD013397D082319620833196908333
:100B60008C93F8014F5F5F4F6F4F7F4F1496DCCF30
:100B7000EE0DFF1D8C8580838D8581838E8582831C
:100B80008F85838380E090E040E050E0BA014C84A0
:100B90005D846E847F84F701E00FF11F0C5F1F4FAF
:100BA0004415550566057705B8F4AC89BD89A80FCD
:100BB000B91FCC901196DC90119712963C91129728
:100BC00013962C91C082D182328323834F5F5F4F73
:100BD0006F4F7F4F0496DBCF8E8980838F8981830F
:100BE000888D8283898D8383412C512C32018E899B
:100BF0009F89A88DB98D481659066A067B0678F537
:100C00005201AA0CBB1CEC8DFD8DEA0DFB1DA081D1
:100C1000B181FD0101900020E9F731976F01CA1AF7
:100C2000DB0AA60160E070E0C701800F911FF5DCD0
:100C30000C5F1F4F8C8D9D8DFC01EA0DFB1D6081AB
:100C40007181A601C701800F911F0E94DA0F0C0D60
:100C50001D1DFFEF4F1A5F0A6F0A7F0AC8CFC80138
:100C6000DF91CF911F910F91FF90EF90DF90CF9088
:100C7000BF90AF907F906F905F904F900895EF92EC
:100C8000FF920F931F93CF93DF938C017B01EC01B5
:100C90008A81FB018193AB81BC81ED010990002029
:100CA000E9F72197CA1BDB0BAE0160E070E0CF01D2
:100CB000B4DCF80163817481AE01C70105960E941E
:100CC000DA0FCE010596DF91CF911F910F91FF9022
:100CD000EF900895CF92DF92EF92FF920F931F93C0
:100CE000CF93DF936C01EB01FC01828188838381C8
:100CF0008983A481B581FD0101900020E9F7319736
:100D00008F010A1B1B0BA80160E070E0CE01029668
:100D100084DCF60164817581A801CE0106960E94EB
:100D2000DA0FC8010696F601A681B781FD01019090
:100D30000020E9F731977F01EA1AFB0AA70160E07A
:100D400070E08C0F9D1F69DC065F1F4FF601668106
:100D50007781A701CE01800F911F0E94DA0F0E0D3F
:100D60001F1DF601A085B185FD0101900020E9F766
:100D700031977F01EA1AFB0AA70160E070E0CE011B
:100D8000800F911F4ADC0C5F1F4FF6016085718553
:100D9000A701CE01800F911F0E94DA0FC8018E0DAE
:100DA0009F1DF6016285438534852585C80FD91FAF
:100DB000688349833A832B830496DF91CF911F91F7
:100DC0000F91FF90EF90DF90CF9008952F923F9278
:100DD0004F925F926F927F928F929F92AF92BF924B
:100DE000CF92DF92EF92FF920F931F93CF93DF93F7
:100DF000CDB7DEB728970FB6F894DEBF0FBECDBFD4
:100E00008C015B01DB018C9111969C9111971296DC
:100E1000CC901297D12CE12CF12C7601DD24CC243E
:100E2000D92AC82A13968C91F82AF80182819381D5
:100E3000A481B5818C159D05AE05BF0568F4B6018A
:100E4000660F771F660F771F82859385CBD7D801F2
:100E50001B969C938E931A97F801C282D382E482E8
:100E6000F582D5011796C12CD12C7601F4E08F2E96
:100E7000912C98012A5F3F4FF80142815381648190
:100E80007581C4010496C416D506E606F70680F5FA
:100E90004C9150E060E070E0742F6627552744279E
:100EA000FD013397E0814E2BFD013297E0815E2BEF
:100EB000FD013197E0816E2BF801468357836087EF
:100EC00071874C01089742855385840F951FF9015E
:100ED0004081518162817381FC014083518362832F
:100EE0007383FFEFCF1ADF0AEF0AFF0A1496C4CF0D
:100EF000F401EA0DFB1D20813181C280D12CE12C4F
:100F0000F12C7601DD24CC24D32AC22A2381F22AB3
:100F10004C01F80184859585A685B7858C159D05BE
:100F2000AE05BF0568F4B601660F771F660F771F21
:100F30008489958957D7D80155969C938E93549759
:100F4000F801C486D586E686F78620E030E0C12C1D
:100F5000D12C7601D8015096F801448555856685D7
:100F60007785F501E80DF91DC4010496C416D50670
:100F7000E606F70648F59180428150E060E070E0B7
:100F8000BA0155274427592990804929E3817E2BAE
:100F9000F801408B518B628B738B4C01848995894E
:100FA000FC01E20FF31F4D915D916D917C911397C0
:100FB0004083518362837383FFEFCF1ADF0AEF0A06
:100FC000FF0A2C5F3F4FC8CF20813181C280D12CD6
:100FD000E12CF12C7601DD24CC24D32AC22A2381F2
:100FE000F22A4C01F80186899789A08DB18D8C1564
:100FF0009D05AE05BF0558F4B601660F771F848DB9
:10100000958DF0D6D8015D969C938E935C97F801F0
:10101000C68AD78AE08EF18E412C512C32011801FC
:10102000FAE12F0E311CF80186899789A08DB18DC8
:10103000481659066A067B0608F059C0B501680DC6
:10104000791DCE010196BBDA94012C5F3F4FC98018
:10105000DA80EB80FC80C901032E000CAA0BBB0BCD
:10106000AC01BD014C0D5D1D6E1D7F1D4D835E836A
:101070006F837887F501E20FF31FAF014A195B090F
:10108000CA01A0E0B0E04D815E816F817885841750
:101090009507A607B70728F44191DF0112974C93F3
:1010A000ECCFC9018C0D9D1DF501E80FF91F31979B
:1010B0001082215031092A0D3B1DD8015B963C93CB
:1010C0002E935A974C01C201880F991F5C96ED919F
:1010D000FC915D97E80FF91FD1018D919C9191834F
:1010E0008083BFEF4B1A5B0A6B0A7B0A9CCFC4015B
:1010F00028960FB6F894DEBF0FBECDBFDF91CF911B
:101100001F910F91FF90EF90DF90CF90BF90AF9025
:101110009F908F907F906F905F904F903F902F9017
:1011200008952F923F924F925F926F927F928F928B
:101130009F92AF92BF92CF92DF92EF92FF920F9366
:101140001F93CF93DF93CDB7DEB7A8970FB6F89470
:10115000DEBF0FBECDBF8C013FD92B013C019801F2
:1011600029573B4F3C8B2B8BF90180819181A281C8
:10117000B381A3019201281B390B4A0B5B0BDA01E7
:10118000C901893F9A42A105B10510F03597108237
:10119000780148E8E41A4BEFF40AD7018D919C914D
:1011A000892B79F0F801E557FB4F80819181A2816D
:1011B000B38184159505A605B70518F4F7011182CA
:1011C0001082980120583B4F388B2F87A801445834
:1011D0005B4F5A8B498BC80144969E8B8D8BD801EF
:1011E000AE57BB4FBA8FA98FF801E057FB4FF8A35A
:1011F000EF8F215F3F4F3AA329A3180136E8231A46
:101200003BEF330A4E5F5F4F588F4F8B89589B4F90
:101210009CA38BA3A30192012C5E3F4F4F4F5F4FC6
:101220002DA33EA34FA358A7D80112968D919C9150
:101230001397DC01ED91FC910680F781E02D199563
:101240009C0197FD6BC2EF85F88980819181820FA7
:10125000931F91838083D7014D915C914730510555
:10126000C9F4EF89F88D80819181AC014F5F5F4FA8
:1012700051834083F801E80FF91F248BD1018D9130
:101280009C91119701978D939C93892B69F688E027
:1012900090E032C04115510539F52F3F310589F4F1
:1012A00081E090E0D7018D939C932DA13EA14FA1A9
:1012B00058A5ABA1BCA12D933D934D935C9313977F
:1012C000B3CF8AD8DC01CB0184199509A609B709E7
:1012D0000697A105B10508F4A7CFF801EE57FB4F1B
:1012E00010828EEF9FEF42C241305105A1F42E3F94
:1012F000310531F482E090E0F7019183808394CF4F
:10130000D7011D921C92E98DFA8D808181118CCFBD
:10131000C8011ED989CF4230510589F4D1012D93DE
:101320003C93EF89F88D1182108283E090E0D70121
:101330008D939C93EF85F8893183208375CF43305B
:10134000510569F4322F2227D1018D919C9111977B
:10135000280F391F2D933C9384E090E0CDCF44308B
:10136000510581F460E071E0D3D48F3F910531F4F1
:1013700085E090E0D7018D939C9356CFF7011182C1
:10138000108252CF4530510571F4A989BA892D9345
:101390003C9386E090E0F70191838083AF85B88924
:1013A0002D933C9341CF4630510599F4322F22279B
:1013B000E989FA8980819181280F391F318320833F
:1013C00087E090E0D7018D939C93F101808191811A
:1013D0005CCF4830510509F027CFD7011D921C92F0
:1013E00060E071E095D48F3F910509F01DCFE98948
:1013F000FA8980819181009709F0C6C0C801A8D8F8
:1014000083E392E09A8389831C821B828DEB92E0B6
:101410009E838D8398878F839A8789871B861C86F6
:101420001D861E865801FCEEAF1AFBEFBF0A68014D
:101430002AEBC21A2BEFD20AD501ED91FC9130971D
:10144000D9F1848195819C838B83808191819E8356
:101450008D8382819381DC01ED91FC910480F58183
:10146000E02D199598878F83D501ED91FC918281AC
:101470009381DC01ED91FC910680F781E02D1995B7
:101480009A87898720E032E040E050E02B873C8754
:101490004D875E87D8018D919C91F501A081B18126
:1014A00018966D917C911997DC01ED91FC91AE013C
:1014B0004F5F5F4FC8011995B2E0AB0EB11CAC1481
:1014C000BD0409F0B9CF812C92E0992EA12CB12C4A
:1014D000F601A081B1811097E1F112968D919C9156
:1014E00013979C838B8314968D919C9115979E8363
:1014F0008D83ED91FC9111970480F581E02DCD0154
:10150000199598878F83D6018D919C91DC01ED917F
:10151000FC910680F781E02D19959A8789878B8643
:101520009C86AD86BE86D801ED91FC9120803180ED
:10153000F60180819181DC01ED91FC910280F381C3
:10154000E02D1995AE014F5F5F4FBC01C801F1015D
:101550001995F2E0CF0ED11CCE14DF0409F0B8CFFC
:10156000F801EE57FB4F81E0808331964082518233
:1015700062827382AB89BC894D925D926D927C923E
:1015800013978FEF9FEFF2C08A30910509F09CC04E
:101590008FE392E09A8389831B821C821D821E82C4
:1015A0001F82188619861A860E94EC01F801808431
:1015B0009184A284B3849B01AC01281939094A099A
:1015C0005B0949015A016D897E89CE010196F6D9E0
:1015D000C501B40128EE33E040E050E0ACD38B808D
:1015E0009C80AD80BE80820E931EA41EB51E8B8291
:1015F0009C82AD82BE829B01AC0160E472E48FE00C
:1016000090E077D38F809884A984BA84DC01CB01E1
:10161000880D991DAA1DBB1D8F839887A987BA873E
:101620000E94EC018F809884A984BA8436E3931ACF
:1016300035E6A30A34ECB30A28EE33E040E050E08C
:101640007AD32B8F3C8F4D8F5E8F9B01AC0160E472
:1016500072E48FE090E04DD3A5019401261B370B77
:10166000480B590BCA01B9018B809C80AD80BE80AC
:1016700031E0831A9108A108B1082B8D3C8D4D8D66
:101680005E8D821A930AA40AB50A20E03AEC4AE970
:101690005BE351D3820E931EA41EB51ED8011C9687
:1016A0008D929D92AD92BC921F97F801608B718BC9
:1016B000828B938B0E94EC01AB89BC896D937D93E7
:1016C0008D939C931397B0CD8630910551F46D891D
:1016D0007E898F8D98A17ADB81E0E9A1FAA18083D0
:1016E000A3CD8B30910521F4A98DBA8D1C929CCD90
:1016F000FC01E154FE4FEE0FFF1FE00FF11F808150
:101700009181009709F490CDDC01ED91FC9101905D
:10171000F081E02D6D897E89199586CDF801EE570F
:10172000FB4F8081882301F17801BDE7EB1ABBEF05
:10173000FB0AF70180819181A281B381A30192010B
:10174000281B390B4A0B5B0BDA01C901853C994018
:10175000A105B10548F0C8010E94A802D7014D9229
:101760005D926D927C92139780E090E0A8960FB600
:10177000F894DEBF0FBECDBFDF91CF911F910F91C7
:10178000FF90EF90DF90CF90BF90AF909F908F90A1
:101790007F906F905F904F903F902F9008951F9291
:1017A0000F920FB60F9211240BB60F922F933F9307
:1017B0004F935F936F937F938F939F93AF93BF9359
:1017C000EF93FF938FEB93E00E940701FF91EF915E
:1017D000BF91AF919F918F917F916F915F914F9149
:1017E0003F912F910F900BBE0F900FBE0F901F9047
:1017F00018951F920F920FB60F9211240BB60F92ED
:101800002F938F939F93EF93FF93E091CF03F091EA
:10181000D0038081E091D503F091D60382FD12C000
:1018200090818091D8038F5F8F732091D9038217A5
:1018300051F0E091D803F0E0E154FC4F958F809394
:10184000D80301C08081FF91EF919F918F912F91DB
:101850000F900BBE0F900FBE0F901F9018951F9208
:101860000F920FB60F9211242F933F938F939F9354
:10187000AF93BF938091B7039091B803A091B90340
:10188000B091BA033091B60325E1230F2D3720F430
:101890000196A11DB11D05C028E9230F0296A11DC7
:1018A000B11D2093B6038093B7039093B803A09320
:1018B000B903B093BA038091BB039091BC03A0918C
:1018C000BD03B091BE030196A11DB11D8093BB0362
:1018D0009093BC03A093BD03B093BE03BF91AF919F
:1018E0009F918F913F912F910F900FBE0F901F905E
:1018F00018951092C2031092C10388EE93E0A0E005
:10190000B0E08093C3039093C403A093C503B09346
:10191000C60387E592E09093C0038093BF0385ECF4
:1019200090E09093CC038093CB0384EC90E0909371
:10193000CE038093CD0380EC90E09093D00380930E
:10194000CF0381EC90E09093D2038093D10382EC9B
:1019500090E09093D4038093D30386EC90E090932F
:10196000D6038093D5031092D8031092D903109216
:10197000DA031092DB0383E792E090936B04809389
:101980006A048FEB93E090936D0480936C0480E085
:1019900091EEA0E0B0E080936E0490936F04A0936A
:1019A0007004B09371041092EC0887E692E0909373
:1019B000FB088093FA081092FC081092FD08109220
:1019C000FE081092FF081092050910920409109267
:1019D000060910920709109208091092090910923D
:1019E0000F0910920E09109210091092110910920D
:1019F0001209109213091092170910921609EEE7B6
:101A0000F8E01192119288E0E03BF807D1F7E0EBA3
:101A1000F8E01192119288E0E23EF807D1F7EEE784
:101A2000F4E0119286E0EE37F807D9F7EEE7F6E03A
:101A3000119288E0EE37F807D9F78DE792E090939E
:101A40006704809366048DEB92E090936904809321
:101A500068048DEA93E090935D0480935C0486E6CD
:101A600094E090935F0480935E041092650410925A
:101A700064040895789484B5826084BD84B58160DF
:101A800084BD85B5826085BD85B5816085BD809149
:101A90006E00816080936E001092810080918100C1
:101AA00082608093810080918100816080938100B9
:101AB000809180008160809380008091B10084607B
:101AC0008093B1008091B00081608093B0008091DC
:101AD0009100826080939100809191008160809359
:101AE0009100809190008160809390008091A1008E
:101AF00082608093A1008091A10081608093A10009
:101B00008091A00081608093A0008091210182607B
:101B10008093210180912101816080932101809136
:101B2000200181608093200180917A0084608093FD
:101B30007A0080917A00826080937A0080917A00A6
:101B40008E7F80937A0080917A00806880937A00FB
:101B50001092C100C0906E04D0906F04E0907004A9
:101B6000F0907104C0916C04D0916D0460E070E459
:101B700088E390E0A7019601DED0DA01C901019760
:101B8000A109B109B695A795979587959C01E88914
:101B9000F98982E08083211580E13807A0F0E88987
:101BA000F989108260E070E28CE190E0A701960173
:101BB000C2D0DA01C9010197A109B109B695A7956B
:101BC000979587959C01EC85FD853083EE85FF8593
:101BD0002083188EEC89FD8986E08083EA89FB8961
:101BE000808180618083EA89FB898081886080832D
:101BF000EA89FB89808180688083EA89FB8980810A
:101C00008F7D80831092E3081092E2081092E5081D
:101C10001092E4081092E9081092E8081092E70880
:101C20001092E608EEE7F8E080E090E02191319133
:101C3000232BC1F4FC01EE0FFF1FE258F74F2CE5F8
:101C400034E03183208383589F4F909361048093C5
:101C500060048AE694E09093630480936204C0E099
:101C6000D2E024C001968931910501F7F8CF0E9496
:101C7000C701DC01CB0188199909AA09BB09883E73
:101C80009340A105B10558F0B1E0CB1AD108E108A5
:101C9000F10828EE820E23E0921EA11CB11CC11493
:101CA000D104E104F10419F70E948F01D093690473
:101CB000C09368048091620490916304DC01ED910B
:101CC000FC9160916004709161040190F081E02DBD
:101CD00046E654E019958AE694E023DA0E94C701AB
:101CE0004B015C0188EEC82E83E0D82EE12CF12C4C
:101CF000BECFDB018F939F9340D0BF91AF91A29F46
:101D0000800D911DA39F900DB29F900D11240895F9
:101D100097FB072E16F4009406D077FD08D037D035
:101D200007FC05D03EF4909581959F4F08957095DE
:101D300061957F4F0895A1E21A2EAA1BBB1BFD01DE
:101D40000DC0AA1FBB1FEE1FFF1FA217B307E4079A
:101D5000F50720F0A21BB30BE40BF50B661F771FF2
:101D6000881F991F1A9469F76095709580959095D2
:101D70009B01AC01BD01CF01089525D0A59F900D19
:101D8000B49F900DA49F800D911D11240895AA1B4E
:101D9000BB1B51E107C0AA1FBB1FA617B70710F056
:101DA000A61BB70B881F991F5A95A9F78095909588
:101DB000BC01CD010895EE0FFF1F881F8BBF079058
:101DC000F691E02D1994A29FB001B39FC001A39F8B
:101DD000700D811D1124911DB29F700D811D112464
:101DE000911D08956F927F928F929F92AF92BF92B2
:101DF000CF92DF92EF92FF920F931F93CF93DF93D7
:101E0000EC01009781F4CB01DF91CF911F910F91ED
:101E1000FF90EF90DF90CF90BF90AF909F908F900A
:101E20007F906F90D0C0FC01E60FF71F9C012250FD
:101E30003109E217F30708F4A8C0D9010D911C91EC
:101E4000119706171707A8F00530110508F49BC075
:101E5000C80104978617970708F495C00250110926
:101E6000061B170B019311936D937C93CF0140D107
:101E70008AC05B01A01AB10A4C01800E911EA0918C
:101E80001A09B0911B0940E050E0E12CF12C1097A9
:101E900009F44AC0A815B905D1F56D907C90119749
:101EA000630182E0C80ED11CCA14DB0480F1A301D7
:101EB0004A195B096A0182E0C80ED11C1296BC90D7
:101EC00012971396AC91B5E0CB16D10440F0B282D4
:101ED000A38351834083D9016D937C930AC00E5F25
:101EE0001F4FC301800F911FF90191838083EB2D58
:101EF000FA2FE114F10431F0D7011396FC93EE931D
:101F0000129741C0F0931B09E0931A093CC08D91D0
:101F10009C9111974817590708F4AC017D0112965E
:101F20000D90BC91A02DB3CF809118099091190903
:101F300088159905E1F446175707C8F480910D02FA
:101F400090910E02009741F48DB79EB74091110217
:101F500050911202841B950BE817F907B0F4F09327
:101F60001909E0931809F901718360830CC0CB0152
:101F70002AD07C01009749F0A801BE011BD0CE01F8
:101F8000B7D0C70104C0CE0102C080E090E0DF916D
:101F9000CF911F910F91FF90EF90DF90CF90BF9066
:101FA000AF909F908F907F906F90089581E090E028
:101FB000F89436C1FB01DC0102C001900D92415042
:101FC0005040D8F70895CF93DF938230910510F4F5
:101FD00082E090E0E0911A09F0911B0920E030E0E6
:101FE000C0E0D0E0309711F1408151814817590786
:101FF000C0F04817590761F482819381209719F046
:102000009B838A832BC090931B0980931A0926C057
:102010002115310519F04217530718F49A01BE0132
:10202000DF01EF010280F381E02DDCCF21153105C6
:1020300009F1281B390B2430310590F412968D914B
:102040009C9113976115710521F0FB0193838283A5
:1020500004C090931B0980931A09FD01329644C075
:10206000FD01E20FF31F81939193225031092D93CB
:102070003C933AC02091180930911909232B41F45F
:1020800020910F0230911002309319092093180902
:1020900020910D0230910E022115310541F42DB72A
:1020A0003EB74091110250911202241B350BE09172
:1020B0001809F0911909E217F307A0F42E1B3F0B42
:1020C0002817390778F0AC014E5F5F4F24173507AA
:1020D00048F04E0F5F1F50931909409318098193E0
:1020E000919302C0E0E0F0E0CF01DF91CF9108953D
:1020F0000F931F93CF93DF93009709F48CC0FC01DB
:1021000032971382128200911A0910911B0901154E
:10211000110581F420813181820F931F20911809CC
:10212000309119092817390779F5F0931909E093C7
:10213000180971C0D80140E050E0AE17BF0750F455
:1021400012962D913C911397AD012115310509F19E
:10215000D901F3CF9D01DA0133832283608171813C
:10216000860F971F8217930769F4EC012881398144
:10217000260F371F2E5F3F4F318320838A819B813B
:1021800093838283452B29F4F0931B09E0931A096A
:1021900042C01396FC93EE931297ED014991599129
:1021A0009E01240F351FE217F30771F4808191819E
:1021B000840F951F029611969C938E938281938132
:1021C00013969C938E931297E0E0F0E0D80112965C
:1021D0008D919C911397009719F0F8018C01F6CF1F
:1021E0008D919C9198012E5F3F4F820F931F2091FC
:1021F0001809309119092817390769F4309729F41B
:1022000010921B0910921A0902C0138212821093B5
:10221000190900931809DF91CF911F910F9108952B
:04222000F894FFCF60
:1022240068656C6C6F20776F726C64210000001C11
:10223400098000726F7373657269616C5F6D736797
:10224400732F52657175657374506172616D00000E
:102254000000006A06EB03E803E503000000002425
:1022640005DE04DB04D804000000003F068E038B67
:10227400038803000000002801A500F200D000E458
:10228400006E01000000007405E606850382030069
:10229400000000FD019108F801000000004A05302B
:1022A400032D032A034D6573736167652066726F9E
:1022B4006D206465766963652064726F707065640F
:1022C4003A206D657373616765206C61726765722E
:1022D400207468616E206275666665722E003939F5
:1022E4003263653861313638376365633863386221
:1022F4006438383365633733636134316431007370
:1023040074645F6D7367732F537472696E670039F9
:102314006630653938626461363539383139383672
:10232400646466353361666137613430653439001D
:1023340031316162643733316332353933333236A4
:10234400316364363138336264313264363239355C
:1023540000726F7373657269616C5F6D7367732F5D
:102364004C6F6700306164353166383866633434E5
:1023740038393266386331303638343037373634AA
:102384003630303500726F7373657269616C5F6DDE
:102394007367732F546F706963496E666F0063646B
:1023A400373136366337346335353263333131662A
:1023B400626363326665356137626332383900734C
:1023C40074645F6D7367732F54696D65006368612E
:0623D40074746572000044
:00000001FF
