:1000000007C1000035C1000033C1000031C100004C
:100010002FC100002DC100002BC1000029C100002C
:1000200027C1000025C1000023C1000021C100003C
:100030001FC100001DC100001BC1000019C100004C
:1000400017C1000015C1000013C1000011C100005C
:100050000FC100000DC100000BC1000028C6000048
:1000600007C10000EEC50000C3C5000001C10000CB
:10007000FFC00000FDC00000FBC00000F9C0000090
:10008000F7C00000F5C00000F3C00000F1C00000A0
:10009000EFC00000EDC00000EBC0000052C6000041
:1000A000E7C00000E5C00000E3C00000E1C00000C0
:1000B000DFC00000DDC00000DBC00000D9C00000D0
:1000C000D7C00000D5C00000D3C00000D1C00000E0
:1000D000CFC00000CDC00000CBC00000C9C00000F0
:1000E000C7C00000E602E902D802DC02E0022003F9
:1000F000ED02F102F702FB02FF02050309030D0303
:100100002003130317031B0300000A0B02090C0D45
:100110000E080703040100000000000000000000BA
:1001200000000000000000000000000000000000CF
:10013000000000001211100000000000000000008C
:1001400000000000000000000000000000000000AF
:100150002200250028002B002E003100340002016F
:100160000000050108010B01000021002400270008
:100170002A002D00300033000101000004010701B6
:100180000A0105050505070508080808020202021C
:100190000A0A080804040404010101010101010123
:1001A0000303030303030303040707070C0C0C0CEE
:1001B0000C0C0C0C020202020606060606060606D7
:1001C0000B0B0B0B0B0B0B0B010210202008081064
:1001D00020401020408002010201080402010102B7
:1001E0000408102040808040201008040201800490
:1001F00002018040201008040201080402010102EB
:100200000408102040800102040810204080D2071A
:1002100011241FBECFEFD1E2DEBFCDBF00E00CBF87
:1002200012E0A0E0B2E0E6E1F4E100E00BBF02C0C2
:1002300007900D92AC39B107D9F724E0ACE9B2E0F0
:1002400001C01D92AE31B207E1F711E0C8E0D1E084
:1002500000E006C021970109802FFE010E94FD09E0
:10026000C730D10780E00807A9F7D8D60C94090A4F
:10027000C7CE2091650390916403213208F04AC0F3
:10028000809141038111FCCF32E03093410331E092
:10029000309340033FEF30933F0310923E0320938F
:1002A0003D03A4E4B3E04DE153E0FA013E2F341BDB
:1002B000321718F43D913193F9CF10921C0320911D
:1002C0001C03990F922B90931C0390911B03913068
:1002D00061F410921B0390911C039093BB009091CA
:1002E000BC0093FDF8CF95EC01C095EE9093BC0057
:1002F000909141039230E1F390913F039F3F79F059
:1003000080913F03803241F080913F03803331F090
:1003100084E005C081E003C082E001C083E0109268
:10032000430310926503109242030895CF92DF9227
:10033000EF92FF920F931F93CF93DF936C017A019B
:100340008B01C0E0D0E0CE15DF0589F0D8016D91BA
:100350008D01D601ED91FC910190F081E02DC60157
:100360001995892B11F47E0102C02196ECCFC701AB
:10037000DF91CF911F910F91FF90EF90DF90CF9081
:100380000895FC01918D828D981761F0828DDF01B7
:10039000A80FB11D5D968C91928D9F5F9F73928F78
:1003A00090E008958FEF9FEF0895FC01918D828D6D
:1003B000981731F0828DE80FF11D858D90E008953A
:1003C0008FEF9FEF0895FC01918D228D892F90E092
:1003D000805C9F4F821B91098F739927089586E651
:1003E00093E0F1DF21E0892B09F420E0822F0895CA
:1003F000FC01848DDF01A80FB11DA35ABF4F2C91C2
:10040000848D90E001968F739927848FA689B78990
:100410002C93A089B1898C9180648C93938D848D69
:10042000981306C00288F389E02D80818F7D808338
:100430000895EF92FF920F931F93CF93DF93EC01F8
:1004400081E0888F9B8D8C8D981305C0E889F98990
:10045000808185FD23C0F62E0B8D10E00F5F1F4FAE
:100460000F731127E02E8C8DE8120BC00FB607FC1E
:10047000FACFE889F989808185FFF5CFCE01B8DF11
:10048000F2CF8B8DFE01E80FF11DE35AFF4FF08292
:100490000B8FEA89FB898081806207C0EE89FF8922
:1004A0006083E889F98980818064808381E090E0BD
:1004B000DF91CF911F910F91FF90EF900895CF930F
:1004C000DF93EC01888D8823C1F0EA89FB89808164
:1004D00085FD05C0A889B9898C9186FD0EC00FB62F
:1004E00007FCF5CF808185FFF2CFA889B9898C916F
:1004F00085FFEDCFCE017CDFE8CFDF91CF9108956E
:1005000080E090E0892B19F06ADF811125C080E03E
:1005100090E0892B41F080E090E0892B21F00E944F
:10052000000081111CC080E090E0892B41F080E048
:1005300090E0892B21F00E940000811113C080E01F
:1005400090E0892BA1F080E090E0892B81F00E945F
:10055000000081110AC008950E940000D8CF0E94B7
:100560000000E1CF0E940000EACF0C940000089543
:10057000362F90E0FC01E85FFE4F4491FC01E85308
:10058000FE4F2491FC01EE57FE4F9491992309F4FC
:100590006AC0442309F454C050E0FA013197E231B3
:1005A000F10508F04DC08827EE58FF4F8F4F25C743
:1005B000809180008F7707C0809180008F7D03C07D
:1005C00080918000877F809380003AC084B58F77C8
:1005D00002C084B58F7D84BD33C08091B0008F7719
:1005E00003C08091B0008F7D8093B00029C08091BE
:1005F00090008F7707C0809190008F7D03C080911D
:100600009000877F809390001BC08091A0008F771F
:1006100007C08091A0008F7D03C08091A000877FDC
:100620008093A0000DC0809120018F7707C080913A
:1006300020018F7D03C080912001877F809320015E
:10064000E92FF0E0EE0FFF1FE25BFE4FA591B491A2
:100650008FB7F894EC91311103C020952E2301C07F
:100660002E2B2C938FBF089585ED8093BC00809135
:10067000BC0084FDFCCF1092410308954091DE023E
:10068000262F30E0240F311D21323105DCF420917A
:1006900041032430C9F4FC0180E090E0861758F44F
:1006A0003091DE022191DC01A454BD4FA30FB11D96
:1006B0002C930196F3CF8091DE02680F6093DE02E7
:1006C00080E0089581E0089582E008950895E09122
:1006D0000D0380910C03E81730F4F0E0E456FD4F71
:1006E000808190E008958FEF9FEF089590910D0322
:1006F00080910C03981750F4E92FF0E0E456FD4F79
:10070000208130E09F5F90930D0302C02FEF3FEFF9
:10071000C901089580910C0390E020910D03821B84
:1007200091090895CF92DF92EF92FF920F931F935A
:10073000CF93DF937C01262F972F8A01809142036C
:10074000882391F0C62FD72F6E01C40ED51ECC156D
:10075000DD0569F06991D701ED91FC910190F0817F
:10076000E02DC7011995F3CF642F822F87DFC801D1
:10077000DF91CF911F910F91FF90EF90DF90CF907D
:100780000895CF93DF931F92CDB7DEB76983209191
:1007900042032223D1F020916503203240F021E072
:1007A00030E0FC013383228380E090E014C080912C
:1007B0004303E82FF0E0EC5BFC4F998190838F5F5F
:1007C000809343038093650304C061E0CE010196EA
:1007D00055DF81E090E00F90DF91CF910895CF93A6
:1007E000DF93EA0191E090934203809364031092B7
:1007F00043031092650383E094E0C3DF688183E0E4
:1008000094E0BFDF36DD91E0811190E0892FDF9128
:10081000CF910895009761F0FC0101900020E9F765
:100820003197AF01481B590BBC0186E693E07ECDA2
:1008300080E090E00895CF93DF93ECDFEC0180E25D
:1008400092E0E8DF8C0F9D1FDF91CF9108958F928A
:100850009F92AF92BF920F931F93CF93DF93CDB729
:10086000DEB7A1970FB6F894DEBF0FBECDBF19A2B9
:10087000423008F44AE08E010F5D1F4F842E912C08
:10088000A12CB12CA501940196D5E62FB901CA017E
:1008900001501109EA3014F4E05D01C0E95CD801AF
:1008A000EC93232B242B252B69F7C801B3DFA196EA
:1008B0000FB6F894DEBF0FBECDBFDF91CF911F9171
:1008C0000F91BF90AF909F908F900895CF92DF923D
:1008D000EF92FF92CF93DF936B017C01E09166036F
:1008E000F09167030190F081E02D6DE286E693E0E0
:1008F0001995EC0166277727CB016C197D098E09C4
:100900009F094AE0A4DF8C0F9D1FDF91CF91FF90DC
:10091000EF90DF90CF900895BC01990F880B990B51
:1009200097FDD4CF4AE093CF2F923F924F925F92A0
:100930006F927F928F929F92AF92BF92CF92DF92EF
:10094000EF92FF920F931F93CF93DF93CDB7DEB754
:1009500027970FB6F894DEBF0FBECDBF8F83962EBC
:100960004E8359018FB7F894C0900803D0900903C3
:10097000E0900A03F0900B038FBF5F81550F5B83FC
:10098000812C312C222423945E81452F50E05D83FD
:100990004C832801612C712C4E81841608F09AC07A
:1009A000209242035F81509364031092430310929C
:1009B0006503692D83E094E0E4DE5BDC2092420372
:1009C0001092430310926503809141038111FCCF83
:1009D0002C813D81281931092132310514F020E2A2
:1009E00030E0213208F020E22092410320924003BF
:1009F0008FEF80933F0310923E03820F80933D035D
:100A000020921C0380911C034B81842B80931C0338
:100A100080911B03813071F410921B0380911C03A1
:100A20008093BB008091BC0083FDF8CF55EC5093C0
:100A3000BC0003C085EE8093BC00809141038130EF
:100A4000E1F380913E03821710F420913E03ADE163
:100A5000B3E0ECE9F2E08E2F4CE952E0841B821700
:100A600018F48D918193F7CF10920D0320930C030E
:100A700090910C0380910D03981731F10115110528
:100A800079F4A501430D511D37FC5A955A834983CA
:100A900083E094E02BDEE981FA8180833394E8CF10
:100AA0002FB7F8948091080390910903A0910A034D
:100AB000B0910B032FBF8C199D09AE09BF09841596
:100AC0009505A605B705E8F28E81813208F080E22F
:100AD000880E62CF832D0115110501F19FB7F8949F
:100AE000409108035091090360910A0370910B0330
:100AF0009FBF4C195D096E097F0920E030E0401767
:100B000051076207730750F09E81492F50E0232D53
:100B1000330C330B241735070CF48FEF27960FB6E1
:100B2000F894DEBF0FBECDBFDF91CF911F910F9123
:100B3000FF90EF90DF90CF90BF90AF909F908F90FD
:100B40007F906F905F904F903F902F900895BF924D
:100B5000CF92DF92EF92FF920F931F93CF93DF9389
:100B60001F921F92CDB7DEB7F82EE62EC42EB22EFE
:100B7000D02E08EE13E09E012E5F3F4F41E0D4DE01
:100B8000882341F14C2D50E04B1951094F5F5F4FC5
:100B900021E030E002C0220F331FBA94E2F7215067
:100BA0003109042E01C0220F0A94EAF78D2D01C0ED
:100BB000880F4A95EAF7322F30959A81932328239C
:100BC000292B2A832983AE014F5F5F4F6E2D8F2D16
:100BD00006DE01C080E00F900F90DF91CF911F9152
:100BE0000F91FF90EF90DF90CF90BF9008950DD4BC
:100BF0001F920F920FB60F9211240BB60F922F93E4
:100C00003F934F935F936F937F938F939F93AF9394
:100C1000BF93EF93FF9386E693E0EADBFF91EF91BA
:100C2000BF91AF919F918F917F916F915F914F9104
:100C30003F912F910F900BBE0F900FBE0F901F9002
:100C400018951F920F920FB60F9211240BB60F92A8
:100C50002F938F939F93EF93FF93E0917603F091FF
:100C600077038081E0917C03F0917D0382FD12C0C7
:100C7000908180917F038F5F8F7320918003821713
:100C800051F0E0917F03F0E0EA59FC4F958F80939B
:100C90007F0301C08081FF91EF919F918F912F91F0
:100CA0000F900BBE0F900FBE0F901F9018951F92C4
:100CB0000F920FB60F9211242F933F938F939F9310
:100CC000AF93BF938091080390910903A0910A0309
:100CD000B0910B033091070325E1230F2D3720F44A
:100CE0000196A11DB11D05C028E9230F0296A11D83
:100CF000B11D209307038093080390930903A093E9
:100D00000A03B0930B038091030390910403A09115
:100D10000503B09106030196A11DB11D8093030345
:100D200090930403A0930503B0930603BF91AF9182
:100D30009F918F913F912F910F900FBE0F901F9019
:100D400018951F920F920FB60F9211240BB60F92A7
:100D50002F933F934F935F936F937F938F939F93C3
:100D6000AF93BF93EF93FF938091B900887F803654
:100D700009F49CC068F5883209F45BC090F48031B6
:100D800009F454C038F4882309F4F6C0883009F413
:100D90004DC0F5C0883109F44CC0803209F45DC003
:100DA000EEC0803409F468C048F4803309F455C0BB
:100DB000883309F0E4C080933F03D8C0803509F43C
:100DC0004FC0883509F45DC0883409F0D8C0D6C05A
:100DD000883909F4C7C0A8F4883709F467C038F423
:100DE000883609F463C0803709F460C0C8C0883809
:100DF00009F4B8C0803909F45FC0803809F0BFC079
:100E00005BC0803B09F486C038F4803A09F466C0C0
:100E1000883A09F47FC0B3C0803C09F4A7C0883C7D
:100E200009F4A4C0883B09F48AC0A9C080911C03BE
:100E300010C090913E0380913D03981770F5E091AA
:100E40003E0381E08E0F80933E03F0E0E35EFC4FB3
:100E500080818093BB0085EC86C080933F038EC069
:100E6000E0913E0381E08E0F80933E038091BB00B2
:100E7000F0E0E35EFC4F808390913E0380913D0360
:100E80006EC0E0913E0381E08E0F80933E0380911F
:100E9000BB00F0E0E35EFC4F808380914003811152
:100EA0006DC081E080931B0384EA61C083E080937E
:100EB000410310920203CFCF80910203803208F0E9
:100EC00051C0E091020381E08E0F80930203809174
:100ED000BB00F0E0EE51FD4F8083BDCF85EC8093E9
:100EE000BC001092410380910203803230F4E09103
:100EF0000203F0E0EE51FD4F10826091020370E0BA
:100F0000E091E002F091E10282EE92E019951092F8
:100F1000020335C084E0809341031092DF021092F7
:100F2000DE02E091DC02F091DD0219958091DE0293
:100F3000811105C081E08093DE021092BC02E09135
:100F4000DF0281E08E0F8093DF02F0E0E454FD4F7A
:100F500080818093BB009091DF028091DE02981720
:100F600008F479CF85E88093BC0009C085EC8093B4
:100F7000BC001092410303C010923F0375DBFF9148
:100F8000EF91BF91AF919F918F917F916F915F9101
:100F90004F913F912F910F900BBE0F900FBE0F906E
:100FA0001F901895E6E6F3E01382128288EE93E034
:100FB000A0E0B0E084839583A683B78324E032E089
:100FC0003183208325EC30E03587248724EC30E022
:100FD0003787268720EC30E0318B208B21EC30E006
:100FE000338B228B22EC30E0358B248B26EC30E0E7
:100FF000378B268B118E128E138E148EE3E0F4E065
:101000001382128284839583A683B78384E192E05E
:101010009183808388E680930F040895CF93DF93B4
:101020001F921F92CDB7DEB7789484B5826084BDDD
:1010300084B5816084BD85B5826085BD85B58160DC
:1010400085BD80916E00816080936E00109281005A
:101050008091810082608093810080918100816015
:1010600080938100809180008160809380008091D6
:10107000B10084608093B1008091B0008160809362
:10108000B0008091910082608093910080919100E6
:1010900081608093910080919000816080939000A6
:1010A0008091A10082608093A1008091A100816065
:1010B0008093A1008091A00081608093A000809126
:1010C00021018260809321018091210181608093C0
:1010D00021018091200181608093200180917A001C
:1010E000846080937A0080917A00826080937A0095
:1010F00080917A008E7F80937A0080917A00806858
:1011000080937A001092C10010920D0310920C038C
:1011100010924303109265031092410381E0809383
:10112000400310921B0361E084E122DA61E085E173
:101130001FDA8091B9008E7F8093B9008091B90049
:101140008D7F8093B90081E48093B80085E480931B
:10115000BC00E0917603F091770382E08083E09118
:101160007203F09173031082E0917403F0917503A0
:101170008FE1808310927E03E0917A03F0917B03EC
:1011800086E08083E0917803F0917903808180612B
:101190008083E0917803F091790380818860808377
:1011A000E0917803F0917903808180688083E091F9
:1011B0007803F091790380818F7D80838BE592E0C5
:1011C0003ADB01E023E042E06BE680910F04BFDCF4
:1011D00000E022E044E06BE180910F04B8DC22E003
:1011E00044E06CE180910F04B2DCF0900F0408EE53
:1011F00013E09E012F5F3F4F41E06BE68F2D94DBA4
:1012000099819F7B99839A83AE014E5F5F4F6BE616
:101210008F2DE5DA87E792E00EDB9E012F5F3F4FCF
:1012200041E065E780910F047FDB882339F08981F5
:101230008E7790E0959587958093100480911004A7
:10124000843319F081E492E002C083E292E0F3DAA1
:10125000E5EDF1E02491EFE8F1E08491882399F045
:1012600090E0880F991FFC01E859FE4FA591B491B9
:10127000FC01E25BFE4F859194918FB7F894EC915D
:10128000E22BEC938FBFFF24F39408EE13E020E1F0
:1012900034E04EE06BE380910F0446DB8091100454
:1012A00090E0982F882720911104822B90931A03A5
:1012B000809319038091120490E0982F8827209141
:1012C0001304822B909318038093170380911404C6
:1012D00090E0982F882720911504822B9093160375
:1012E000809315038091180490E0982F882720910F
:1012F0001904822B909314038093130380911A0492
:1013000090E0982F882720911B04822B9093120342
:101310008093110380911C0490E0982F88272091DE
:101320001D04822B9093100380930F0385E992E0B4
:1013300071DA8091190390911A03EEDA89E992E04B
:1013400069DA8091170390911803E6DA89E992E04F
:1013500061DA8091150390911603DEDA89E992E053
:1013600059DA8091130390911403D6DA89E992E057
:1013700051DA8091110390911203CEDA89E992E05B
:1013800049DA60910F0370911003072E000C880B4F
:10139000990B97FF02C09ADA02C04AE058DA80E25D
:1013A00092E038DA60910E036F2560930E038DE0B2
:1013B000DFD8A6D86ACFA1E21A2EAA1BBB1BFD015B
:1013C0000DC0AA1FBB1FEE1FFF1FA217B307E40724
:1013D000F50720F0A21BB30BE40BF50B661F771F7C
:1013E000881F991F1A9469F760957095809590955C
:1013F0009B01AC01BD01CF010895EE0FFF1F881FB7
:101400008BBF0790F691E02D199481E090E0F8945D
:0614100000C0F894FFCFBC
:101416000000000019029601E301C101D5015F0237
:1014260000000000C10392038A0376036703660384
:101436000D0A004D50553630353020636F6E6E659F
:101446006374696F6E207375636365737366756C19
:10145600004D50553630353020636F6E6E656374BF
:10146600696F6E206661696C656400496E697469AE
:10147600616C697A696E67204932432064657669D2
:101486006365732E2E2E0054657374696E6720642F
:10149600657669636520636F6E6E656374696F6EEA
:0C14A600732E2E2E00612F673A09000003
:00000001FF
